:100000000C945D000C9485000C9485000C94850084
:100010000C9485000C9485000C9485000C9485004C
:100020000C9485000C9485000C9485000C9485003C
:100030000C9485000C9485000C9485000C9485002C
:100040000C9499050C9485000C9467050C9441055B
:100050000C9485000C9485000C9485000C9485000C
:100060000C9485000C94850000000008000201003B
:100070000003040700000000000000000000000072
:10008000250028002B0000000000240027002A0083
:10009000040404040404040402020202020203032E
:1000A0000303030301020408102040800102040836
:1000B0001020010204081020890711241FBECFEF71
:1000C000D8E0DEBFCDBF11E0A0E0B1E0E6E1F4E1B1
:1000D00002C005900D92AE39B107D9F722E0AEE922
:1000E000B1E001C01D92A434B207E1F710E0CDE504
:1000F000D0E004C02197FE010E94DF09CC35D10772
:10010000C9F70E94E3050C94090A0C940000FC0155
:1001100086819781680F791F2481358126173707DB
:1001200038F022813381820F931F7783668308958D
:1001300090E080E00895AF92BF92CF92DF92EF926D
:10014000FF920F931F93CF93DF936C017B018B0181
:10015000040F151FEB015E01AE18BF08C017D107D1
:1001600059F06991D601ED91FC910190F081E02D5B
:10017000C6010995892B79F7C501DF91CF911F91B0
:100180000F91FF90EF90DF90CF90BF90AF900895C8
:10019000FC01538D448D252F30E0842F90E0821B8D
:1001A000930B541710F0CF96089501970895FC0112
:1001B000918D828D981761F0A28DAE0FBF2FB11D6A
:1001C0005D968C91928D9F5F9F73928F90E00895C2
:1001D0008FEF9FEF0895FC01918D828D981731F07C
:1001E000828DE80FF11D858D90E008958FEF9FEFD0
:1001F0000895FC01918D228D892F90E0805C9F4FA6
:10020000821B91098F739927089587EA91E00E94D4
:10021000F90021E0892B09F420E0822F089580E085
:1002200090E0892B29F00E94050181110C940000B7
:100230000895FC01A48DA80FB92FB11DA35ABF4F7B
:100240002C91848D90E001968F739927848FA689D5
:10025000B7892C93A089B1898C91837080648C9329
:10026000938D848D981306C00288F389E02D8081D8
:100270008F7D80830895EF92FF920F931F93CF930A
:10028000DF93EC0181E0888F9B8D8C8D98131AC0D1
:10029000E889F989808185FF15C09FB7F894EE89B8
:1002A000FF896083E889F989808183708064808315
:1002B0009FBF81E090E0DF91CF911F910F91FF9060
:1002C000EF900895F62E0B8D10E00F5F1F4F0F7308
:1002D0001127E02E8C8D8E110CC00FB607FCFACFC3
:1002E000E889F989808185FFF5CFCE010E94190147
:1002F000F1CFEB8DEC0FFD2FF11DE35AFF4FF08294
:100300009FB7F8940B8FEA89FB8980818062CFCFF9
:10031000CF93DF93EC01888D8823B9F0AA89BB893C
:10032000E889F9898C9185FD03C0808186FD0DC027
:100330000FB607FCF7CF8C9185FFF2CF808185FF48
:10034000EDCFCE010E941901E9CFDF91CF91089541
:1003500090E0FC01E859FF4F2491FC01EC55FF4F60
:100360003491FC01E057FF4FE491EE23C9F02223C2
:1003700039F0233001F1A8F4213019F1223029F1AC
:10038000F0E0EE0FFF1FE458FF4FA591B4918FB737
:10039000F894EC91611126C030953E233C938FBFB9
:1003A00008952730A9F02830C9F0243049F780910A
:1003B00080008F7D03C0809180008F7780938000C4
:1003C000DFCF84B58F7784BDDBCF84B58F7DFBCF46
:1003D0008091B0008F778093B000D2CF8091B00031
:1003E0008F7DF9CF3E2BDACFCF93DF93EC0188815D
:1003F0009981DC01ED91FC910190F081E02D09954E
:100400002A813B81820F931F9B838A83DF91CF9147
:100410000895CF93DF93EC0190E080E061157105C2
:1004200089F088819981FB0101900020E9F73197DB
:10043000AF01461B570BDC01ED91FC910280F3816B
:10044000E02D09952A813B81820F931F9B838A832C
:10045000DF91CF9108950F931F93CF93DF93CDB783
:10046000DEB766970FB6F894DEBF0FBECDBF9C0116
:10047000CB011E8AFE0176960AE010E0B8010E94C8
:10048000CB09805D8293CB010097C1F7BF01C90101
:100490000E94090266960FB6F894DEBF0FBECDBF6C
:1004A000DF91CF911F910F910895FF920F931F93AA
:1004B000CF93DF936115710549F46FE671E0DF9129
:1004C000CF911F910F91FF900C9409028B01EC01C9
:1004D00062E2CE010E94F401F80161918F0166236E
:1004E00051F0E0E6F1E0F080FF2099F38181681798
:1004F00059F03296F8CF62E2CE01DF91CF911F9191
:100500000F91FF900C94F4016CE5CE010E94F40170
:100510006F2DDFCF0F931F93CF93DF938C01EB01F0
:100520006BE7CE010E94F401F801028113810115ED
:100530001105D1F0F80162817381CE010E9455024C
:100540006AE3CE010E94F401BE01C80104960E9434
:10055000BC02F801008111810115110529F06CE23E
:10056000CE010E94F401E3CF6DE7CE01DF91CF9180
:100570001F910F910C94F4012F923F924F925F9232
:100580006F927F928F929F92AF92BF92CF92DF92A3
:10059000EF92FF920F931F93CF93DF93CDB7DEB708
:1005A0006C970FB6F894DEBF0FBECDBFDC01ED91A6
:1005B000FC913197E830F10508F0D5C11B018C01A1
:1005C000EC51FD4F0C94DF090805010533051405B6
:1005D0001005D704FA04EC02FC01428053806480C9
:1005E0007580A3019201C301B2010E94B6076FE7B3
:1005F00071E0811111C220E030E0A901C301B20114
:100600000E94B60787FF08C06DE2C1010E94F40195
:1006100077FA709477F8709420E030E0A901C30174
:10062000B2010E94B607882389F0A3019201C30199
:10063000B2010E942B099B01AC01C301B2010E94CF
:10064000B60763E871E0882309F4E6C120E836E9DB
:1006500048E15BE4C301B2010E94C60987FD7FC087
:10066000A8E4EA2EA1E0FA2EB8E1CB2EB1E0DB2E11
:1006700010E3A12E11E0B12E00E210E0188E1F8AC7
:10068000D7015E914E913E912E917D01C301B20141
:100690000E94C60987FD11C0F60124893589468963
:1006A0005789C301B2010E941C082B013C018F89AC
:1006B000988D800F911F988F8F8B1595079594E0DB
:1006C000C91AD108AE14BF04D9F699249A9420E02F
:1006D00030E0A901C301B2010E94C60918160CF04E
:1006E00045C02CEA35EC47E257E3C301B2010E9452
:1006F000B6071816DCF1A92DB4E0AB0250011124A5
:10070000D12CC12CEFEF9E1689F17501EC0CFD1C6C
:10071000F701E050FF4FA301920160817181828156
:1007200093810E94C60918169CF4F701E05DFE4F04
:100730002081318142815381C301B2010E941C0892
:100740002B013C018F89988D801B910B988F8F8B8B
:10075000159507959A9494E0C91AD108D3CF00E271
:1007600010E0E5E09E2E188E1F8AB1CFC301B201C2
:100770000E9497096B017C014B015C0106E080E45B
:1007800092E4AFE0B0E0898F9A8FAB8FBC8F102FCF
:1007900001509AE089169104A104B104C8F0698D52
:1007A0007A8D8B8D9C8D2AE030E040E050E00E94F5
:1007B000F908298F3A8F4B8F5C8FC501B4012AE06D
:1007C00030E040E050E00E94F90849015A01DFCFD3
:1007D000C701B6010E94BB079B01AC01C301B20176
:1007E0000E942A094B015C01698D7A8D8B8D9C8D4D
:1007F0000E94BB079B01AC01C501B4010E941C080B
:100800004B015C010E9497092B013C010E94BB0730
:100810009B01AC01C501B4010E942A099B01AC01F6
:100820000E942B090E949709460E571E681E791ECA
:10083000898D9A8DAB8DBC8D481659066A067B064C
:10084000D8F09FEFC91AD90AE90AF90AAF89B88D19
:10085000AB2B39F1BAE0CB16D104E104F10408F175
:10086000EF89F88D3196F88FEF8B412C512C3201A6
:10087000C12CD12C7601C3945AE0852E912CA12C49
:10088000B12CC301B201A50194010E94F908672BA4
:10089000682B692B51F4111644F429013A011150C7
:1008A000F0CF412C512C3201E7CF1E8ACE01469663
:1008B0009A8F898F4AE0842E912CA12CB12CC701EC
:1008C000B601A50194010E94F908605DA98DBA8D59
:1008D0006E93BA8FA98F69017A01C114D104E10422
:1008E000F10469F7BD01C1010E940902112351F110
:1008F000188A6E01B0E1CB0ED11C012F76013AE0CF
:10090000832E912CA12CB12C015068F0C301B201AF
:10091000A50194010E94F908605DF60162936F01E0
:1009200029013A01F1CF612F70E0F701E61BF70BC7
:1009300031978EE28083609570956E0D7F1DC101A9
:100940000E9409028F89988D97FF26C06CE871E09C
:10095000C1010E9409026F89788D719561957109B5
:10096000C1010E942B026C960FB6F894DEBF0FBE39
:10097000CDBFDF91CF911F910F91FF90EF90DF904E
:10098000CF90BF90AF909F908F907F906F905F902F
:100990004F903F902F900895AF89B88DAB2B19F3EE
:1009A00065E6C1010E94F4016F89788DD9CFFC0101
:1009B000028113816BE5C1010E94F401D8011296F6
:1009C0000D911C910115110581F0B101C80102962C
:1009D0000E94BC02F801008111810115110529F066
:1009E0006CE2C1010E94F401EDCF6DE5C1010E94EE
:1009F000F401B9CFDC0112968D919C910E948A027C
:100A0000B2CFFC0162817381C1010E945502ABCF5C
:100A1000DC0112966D917C91C1010E940902A3CF65
:100A20006DE2C1010E94F401F80162817381848149
:100A300095811E8A8E010A5E1F4F2AE0C22ED12C9C
:100A4000E12CF12CA70196010E94F908605DD80104
:100A50006E938D01B901CA0161157105810591057A
:100A600089F7BD01D9CFFC0182819381A481B58131
:100A700064E771E0892B8A2B8B2B71F669E771E0B3
:100A8000CBCF1F920F920FB60F9211242F933F934B
:100A90004F935F936F937F938F939F93AF93BF9386
:100AA000EF93FF9387EA91E00E941901FF91EF9184
:100AB000BF91AF919F918F917F916F915F914F9176
:100AC0003F912F910F900FBE0F901F9018951F927E
:100AD0000F920FB60F9211242F938F939F93EF9342
:100AE000FF93E091B701F091B8018081E091BD01E1
:100AF000F091BE0182FD1BC090818091C0018F5F8B
:100B00008F732091C101821741F0E091C001F0E0A4
:100B1000E955FE4F958F8093C001FF91EF919F9112
:100B20008F912F910F900FBE0F901F90189580817D
:100B3000F4CF1F920F920FB60F9211242F933F9371
:100B40008F939F93AF93BF938091A3019091A40142
:100B5000A091A501B091A6013091A20123E0230F3D
:100B60002D3758F50196A11DB11D2093A201809348
:100B7000A3019093A401A093A501B093A601809135
:100B80009E0190919F01A091A001B091A1010196B9
:100B9000A11DB11D80939E0190939F01A093A00180
:100BA000B093A101BF91AF919F918F913F912F91F0
:100BB0000F900FBE0F901F90189526E8230F0296F6
:100BC000A11DB11DD2CFCF93DF93CDB7DEB7C45DEA
:100BD000D1090FB6F894DEBF0FBECDBF789484B5AF
:100BE000826084BD84B5816084BD85B5826085BD29
:100BF00085B5816085BD80916E00816080936E00B7
:100C000010928100809181008260809381008091A8
:100C10008100816080938100809180008160809359
:100C200080008091B10084608093B1008091B00019
:100C300081608093B00080917A00846080937A0014
:100C400080917A00826080937A0080917A0081603E
:100C500080937A0080917A00806880937A00109265
:100C6000C100E091B701F091B80182E08083E0918A
:100C7000B301F091B4011082E091B501F091B60199
:100C80008FEC80831092BF01E091BB01F091BC0119
:100C900086E08083E091B901F091BA0180818061A2
:100CA0008083E091B901F091BA01808188608083EE
:100CB000E091B901F091BA01808180688083E09170
:100CC000B901F091BA0180818F7D808381E090E04D
:100CD000A0E0B0E08093AB019093AC01A093AD0194
:100CE000B093AE01E8EAF0E02491E4E9F0E0849109
:100CF000882399F090E0880F991FFC01EA57FF4F75
:100D0000A591B491FC01E458FF4F859194918FB760
:100D1000F894EC91E22BEC938FBFE2EBF0E024919E
:100D2000EEE9F0E084918823C9F090E0880F991FE4
:100D3000FC01EA57FF4F45915491FC01E458FF4FE5
:100D4000A591B4919FB7F894FA01808120958223F0
:100D500080838C91E22FE823EC939FBF4E01F9E052
:100D60008F0E911C88EC682E712C22242A9493E01B
:100D7000392E412C512C9C828B827E826D828EE595
:100D800091E09A838983A4E0B0E0B887AF83E1E083
:100D9000F0E0EC0FFD1FFA87E9871C861B86F0E464
:100DA000F0937C0080917A00806480937A00809137
:100DB0007A0086FDFCCF80917800A0917900BA2F4F
:100DC000A82F24E630E00E94E509A20191010E94CB
:100DD000DA08690159010B851C850115110509F413
:100DE0007BC0D80112966D917C916115710531F02F
:100DF0008FE891E00E94000A892BA9F0F801008198
:100E00001181EBCFFC01808191810097D9F711838B
:100E1000008301151105C9F0EFE8F1E0D801139640
:100E2000FC93EE931297B7FC4DC00D2C000CEE080E
:100E3000FF0884E090E0D80115969C938E93149758
:100E4000F801C682D782E086F18687EA91E0CF5228
:100E5000DF4F99838883C15DD040CD52DF4F198227
:100E60001882C35DD040BE016F527F4FC4010E9403
:100E70008A0218861F8242E050E06AE971E087EA40
:100E800091E00E949B0087EA91E00E94D70061E018
:100E90008133910519F0C09721F460E084E00E944D
:100EA000A8018BEC97E00197F1F7A0E0B0E0AB2B45
:100EB00009F461CF0E940501882309F45CCF0E94E8
:100EC000000059CFD194C194D1080D2C000CEE082C
:100ED000FF0885E090E0AFCF89859A85009789F07B
:100EE000DC01ED91FC910190F081E02D6AE070E071
:100EF00009958C01009729F0FC011182108215825E
:100F00001482EB85FC85309709F07DCF1C870B8719
:100F100080CFE7EAF1E01382128288EE93E0A0E04E
:100F2000B0E084839583A683B7838CE491E09183BA
:100F3000808385EC90E09587848784EC90E09787A8
:100F4000868780EC90E0918B808B81EC90E0938B96
:100F5000828B82EC90E0958B848B86EC90E0978B73
:100F6000868B118E128E138E148E08950E94F807B0
:100F700008F481E00895E89409C097FB3EF4909549
:100F80008095709561957F4F8F4F9F4F9923A9F062
:100F9000F92F96E9BB279395F695879577956795F1
:100FA000B795F111F8CFFAF4BB0F11F460FF1BC035
:100FB0006F5F7F4F8F4F9F4F16C0882311F096E9C8
:100FC00011C0772321F09EE8872F762F05C0662376
:100FD00071F096E8862F70E060E02AF09A95660F2F
:100FE000771F881FDAF7880F9695879597F90895E8
:100FF000990F0008550FAA0BE0E8FEEF161617062A
:10100000E807F907C0F012161306E407F50798F091
:10101000621B730B840B950B39F40A2661F0232BAA
:10102000242B252B21F408950A2609F4A140A69526
:101030008FEF811D811D08950E942F080C94A00838
:101040000E94920838F00E94990820F0952311F030
:101050000C9489080C948F0811240C94D4080E94D5
:10106000B10870F3959FC1F3950F50E0551F629F33
:10107000F001729FBB27F00DB11D639FAA27F00DF1
:10108000B11DAA1F649F6627B00DA11D661F829F18
:101090002227B00DA11D621F739FB00DA11D621FFD
:1010A000839FA00D611D221F749F3327A00D611D1A
:1010B000231F849F600D211D822F762F6A2F1124FC
:1010C0009F5750409AF0F1F088234AF0EE0FFF1F2F
:1010D000BB1F661F771F881F91505040A9F79E3F86
:1010E000510580F00C9489080C94D4085F3FE4F318
:1010F000983ED4F3869577956795B795F795E795DC
:101100009F5FC1F7FE2B880F911D9695879597F9E4
:10111000089597F99F6780E870E060E008959FEF79
:1011200080EC089500240A9416161706180609067E
:10113000089500240A94121613061406050608954D
:10114000092E0394000C11F4882352F0BB0F40F4D5
:10115000BF2B11F460FF04C06F5F7F4F8F4F9F4F15
:10116000089557FD9058440F551F59F05F3F71F097
:101170004795880F97FB991F61F09F3F79F08795FE
:101180000895121613061406551FF2CF4695F1DF87
:1011900008C0161617061806991FF1CF8695710517
:1011A000610508940895E894BB2766277727CB014B
:1011B00097F90895052E97FB1EF400940E94F108FC
:1011C00057FD07D00E94F90807FC03D04EF40C9499
:1011D000F10850954095309521953F4F4F4F5F4F07
:1011E000089590958095709561957F4F8F4F9F4F93
:1011F0000895A1E21A2EAA1BBB1BFD010DC0AA1F58
:10120000BB1FEE1FFF1FA217B307E407F50720F06F
:10121000A21BB30BE40BF50B661F771F881F991FEA
:101220001A9469F760957095809590959B01AC0133
:10123000BD01CF010895A29FB001B39FC001A39F3C
:10124000700D811D1124911DB29F700D811D1124FF
:10125000911D08955058BB27AA270E9442090C945B
:10126000A0080E94920838F00E94990820F039F4F2
:101270009F3F19F426F40C948F080EF4E095E7FBD9
:101280000C948908E92F0E94B10858F3BA17620735
:1012900073078407950720F079F4A6F50C94D3081A
:1012A0000EF4E0950B2EBA2FA02D0B01B901900181
:1012B0000C01CA01A0011124FF27591B99F0593FC5
:1012C00050F4503E68F11A16F040A22F232F342F0D
:1012D0004427585FF3CF469537952795A795F0405B
:1012E0005395C9F77EF41F16BA0B620B730B840B70
:1012F000BAF09150A1F0FF0FBB1F661F771F881F28
:10130000C2F70EC0BA0F621F731F841F48F487957F
:1013100077956795B795F7959E3F08F0B0CF939571
:10132000880F08F09927EE0F9795879508950E94EA
:10133000B90888F09F5798F0B92F9927B751B0F0A6
:10134000E1F0660F771F881F991F1AF0BA95C9F749
:1013500014C0B13091F00E94D308B1E008950C940C
:10136000D308672F782F8827B85F39F0B93FCCF3BF
:10137000869577956795B395D9F73EF490958095C6
:10138000709561957F4F8F4F9F4F08950E94F8078A
:1013900008F48FEF089597FB072E16F4009407D0FA
:1013A00077FD09D00E94EC0907FC05D03EF490952A
:1013B00081959F4F0895709561957F4F0895EE0F29
:1013C000FF1F0590F491E02D09940E941B09B7FFBF
:1013D0000895821B930B0895AA1BBB1B51E107C004
:1013E000AA1FBB1FA617B70710F0A61BB70B881FB5
:1013F000991F5A95A9F780959095BC01CD01089544
:10140000FB01DC018D91019080190110D9F3990B3A
:061410000895F894FFCFDF
:101416000000803FCDCCCC3D6F12833A95BFD633CA
:101426007D1D9026B3CE010CCDCCCC3D0AD7233CF6
:1014360017B7D13877CC2B329595E6241FB14F0AD2
:10144600000020410000C84200401C4620BCBE4CA3
:10145600CA1B0E5AAEC59D74000000003B019B00DE
:10146600C8008801F900D700EB00000000008700E3
:1014760022225C5C6208660C6E0A720D7409006EAC
:10148600756C6C00747275650066616C7365004EF0
:10149600614E00496E66696E69747900652D006B50
:0E14A600656C656D626162616E000D0A00008A
:00000001FF
